{
  "contractName": "Constant",
  "abi": [
    {
      "constant": true,
      "inputs": [],
      "name": "name",
      "outputs": [
        {
          "name": "",
          "type": "string"
        }
      ],
      "payable": false,
      "stateMutability": "view",
      "type": "function"
    },
    {
      "constant": false,
      "inputs": [
        {
          "name": "spender",
          "type": "address"
        },
        {
          "name": "value",
          "type": "uint256"
        }
      ],
      "name": "approve",
      "outputs": [
        {
          "name": "",
          "type": "bool"
        }
      ],
      "payable": false,
      "stateMutability": "nonpayable",
      "type": "function"
    },
    {
      "constant": true,
      "inputs": [],
      "name": "totalSupply",
      "outputs": [
        {
          "name": "",
          "type": "uint256"
        }
      ],
      "payable": false,
      "stateMutability": "view",
      "type": "function"
    },
    {
      "constant": false,
      "inputs": [
        {
          "name": "from",
          "type": "address"
        },
        {
          "name": "to",
          "type": "address"
        },
        {
          "name": "value",
          "type": "uint256"
        }
      ],
      "name": "transferFrom",
      "outputs": [
        {
          "name": "",
          "type": "bool"
        }
      ],
      "payable": false,
      "stateMutability": "nonpayable",
      "type": "function"
    },
    {
      "constant": true,
      "inputs": [],
      "name": "decimals",
      "outputs": [
        {
          "name": "",
          "type": "uint256"
        }
      ],
      "payable": false,
      "stateMutability": "view",
      "type": "function"
    },
    {
      "constant": false,
      "inputs": [
        {
          "name": "spender",
          "type": "address"
        },
        {
          "name": "addedValue",
          "type": "uint256"
        }
      ],
      "name": "increaseAllowance",
      "outputs": [
        {
          "name": "",
          "type": "bool"
        }
      ],
      "payable": false,
      "stateMutability": "nonpayable",
      "type": "function"
    },
    {
      "constant": true,
      "inputs": [
        {
          "name": "owner",
          "type": "address"
        }
      ],
      "name": "balanceOf",
      "outputs": [
        {
          "name": "",
          "type": "uint256"
        }
      ],
      "payable": false,
      "stateMutability": "view",
      "type": "function"
    },
    {
      "constant": true,
      "inputs": [],
      "name": "symbol",
      "outputs": [
        {
          "name": "",
          "type": "string"
        }
      ],
      "payable": false,
      "stateMutability": "view",
      "type": "function"
    },
    {
      "constant": false,
      "inputs": [
        {
          "name": "spender",
          "type": "address"
        },
        {
          "name": "subtractedValue",
          "type": "uint256"
        }
      ],
      "name": "decreaseAllowance",
      "outputs": [
        {
          "name": "",
          "type": "bool"
        }
      ],
      "payable": false,
      "stateMutability": "nonpayable",
      "type": "function"
    },
    {
      "constant": false,
      "inputs": [
        {
          "name": "to",
          "type": "address"
        },
        {
          "name": "value",
          "type": "uint256"
        }
      ],
      "name": "transfer",
      "outputs": [
        {
          "name": "",
          "type": "bool"
        }
      ],
      "payable": false,
      "stateMutability": "nonpayable",
      "type": "function"
    },
    {
      "constant": true,
      "inputs": [
        {
          "name": "owner",
          "type": "address"
        },
        {
          "name": "spender",
          "type": "address"
        }
      ],
      "name": "allowance",
      "outputs": [
        {
          "name": "",
          "type": "uint256"
        }
      ],
      "payable": false,
      "stateMutability": "view",
      "type": "function"
    },
    {
      "inputs": [
        {
          "name": "_monetary",
          "type": "address"
        },
        {
          "name": "_oracle",
          "type": "address"
        }
      ],
      "payable": false,
      "stateMutability": "nonpayable",
      "type": "constructor"
    },
    {
      "anonymous": false,
      "inputs": [
        {
          "indexed": false,
          "name": "offchain",
          "type": "bytes32"
        }
      ],
      "name": "__transferByAdmin",
      "type": "event"
    },
    {
      "anonymous": false,
      "inputs": [
        {
          "indexed": false,
          "name": "offchain",
          "type": "bytes32"
        }
      ],
      "name": "__purchase",
      "type": "event"
    },
    {
      "anonymous": false,
      "inputs": [
        {
          "indexed": false,
          "name": "offchain",
          "type": "bytes32"
        }
      ],
      "name": "__redeem",
      "type": "event"
    },
    {
      "anonymous": false,
      "inputs": [
        {
          "indexed": false,
          "name": "lid",
          "type": "uint256"
        },
        {
          "indexed": false,
          "name": "offchain",
          "type": "bytes32"
        }
      ],
      "name": "__borrow",
      "type": "event"
    },
    {
      "anonymous": false,
      "inputs": [
        {
          "indexed": false,
          "name": "offchain",
          "type": "bytes32"
        }
      ],
      "name": "__payoff",
      "type": "event"
    },
    {
      "anonymous": false,
      "inputs": [
        {
          "indexed": false,
          "name": "offchain",
          "type": "bytes32"
        }
      ],
      "name": "__liquidate",
      "type": "event"
    },
    {
      "anonymous": false,
      "inputs": [
        {
          "indexed": true,
          "name": "from",
          "type": "address"
        },
        {
          "indexed": true,
          "name": "to",
          "type": "address"
        },
        {
          "indexed": false,
          "name": "value",
          "type": "uint256"
        }
      ],
      "name": "Transfer",
      "type": "event"
    },
    {
      "anonymous": false,
      "inputs": [
        {
          "indexed": true,
          "name": "owner",
          "type": "address"
        },
        {
          "indexed": true,
          "name": "spender",
          "type": "address"
        },
        {
          "indexed": false,
          "name": "value",
          "type": "uint256"
        }
      ],
      "name": "Approval",
      "type": "event"
    },
    {
      "constant": false,
      "inputs": [
        {
          "name": "from",
          "type": "address"
        },
        {
          "name": "to",
          "type": "address"
        },
        {
          "name": "value",
          "type": "uint256"
        },
        {
          "name": "offchain",
          "type": "bytes32"
        }
      ],
      "name": "transferByAdmin",
      "outputs": [],
      "payable": false,
      "stateMutability": "nonpayable",
      "type": "function"
    },
    {
      "constant": false,
      "inputs": [
        {
          "name": "purchaser",
          "type": "address"
        },
        {
          "name": "value",
          "type": "uint256"
        },
        {
          "name": "offchain",
          "type": "bytes32"
        }
      ],
      "name": "purchase",
      "outputs": [],
      "payable": false,
      "stateMutability": "nonpayable",
      "type": "function"
    },
    {
      "constant": false,
      "inputs": [
        {
          "name": "redeemer",
          "type": "address"
        },
        {
          "name": "value",
          "type": "uint256"
        },
        {
          "name": "offchain",
          "type": "bytes32"
        }
      ],
      "name": "redeem",
      "outputs": [],
      "payable": false,
      "stateMutability": "nonpayable",
      "type": "function"
    },
    {
      "constant": false,
      "inputs": [
        {
          "name": "offchain",
          "type": "bytes32"
        }
      ],
      "name": "borrow",
      "outputs": [],
      "payable": true,
      "stateMutability": "payable",
      "type": "function"
    },
    {
      "constant": false,
      "inputs": [
        {
          "name": "lid",
          "type": "uint256"
        },
        {
          "name": "offchain",
          "type": "bytes32"
        }
      ],
      "name": "payoff",
      "outputs": [],
      "payable": false,
      "stateMutability": "nonpayable",
      "type": "function"
    },
    {
      "constant": false,
      "inputs": [
        {
          "name": "lid",
          "type": "uint256"
        },
        {
          "name": "offchain",
          "type": "bytes32"
        }
      ],
      "name": "liquidate",
      "outputs": [],
      "payable": false,
      "stateMutability": "nonpayable",
      "type": "function"
    }
  ],
  "bytecode": "0x608060405234801561001057600080fd5b50604051604080612295833981018060405281019080805190602001909291908051906020019092919050505033600360006101000a81548173ffffffffffffffffffffffffffffffffffffffff021916908373ffffffffffffffffffffffffffffffffffffffff16021790555081600560006101000a81548173ffffffffffffffffffffffffffffffffffffffff021916908373ffffffffffffffffffffffffffffffffffffffff16021790555080600660006101000a81548173ffffffffffffffffffffffffffffffffffffffff021916908373ffffffffffffffffffffffffffffffffffffffff1602179055505050612184806101116000396000f3006080604052600436106100f1576000357c0100000000000000000000000000000000000000000000000000000000900463ffffffff16806306fdde03146100f6578063095ea7b31461018657806318160ddd146101eb57806323b872dd14610216578063313ce5671461029b57806339509351146102c65780634c5552821461032b57806370a082311461036657806395d89b41146103bd578063992c3e4b1461044d578063a3749f28146104a8578063a457c2d714610503578063a9059cbb14610568578063d5eed868146105cd578063dd62ed3e146105f1578063e137f31b14610668578063f9ba884f146106a3575b600080fd5b34801561010257600080fd5b5061010b61071e565b6040518080602001828103825283818151815260200191508051906020019080838360005b8381101561014b578082015181840152602081019050610130565b50505050905090810190601f1680156101785780820380516001836020036101000a031916815260200191505b509250505060405180910390f35b34801561019257600080fd5b506101d1600480360381019080803573ffffffffffffffffffffffffffffffffffffffff16906020019092919080359060200190929190505050610757565b604051808215151515815260200191505060405180910390f35b3480156101f757600080fd5b50610200610884565b6040518082815260200191505060405180910390f35b34801561022257600080fd5b50610281600480360381019080803573ffffffffffffffffffffffffffffffffffffffff169060200190929190803573ffffffffffffffffffffffffffffffffffffffff1690602001909291908035906020019092919050505061088e565b604051808215151515815260200191505060405180910390f35b3480156102a757600080fd5b506102b0610a40565b6040518082815260200191505060405180910390f35b3480156102d257600080fd5b50610311600480360381019080803573ffffffffffffffffffffffffffffffffffffffff16906020019092919080359060200190929190505050610a45565b604051808215151515815260200191505060405180910390f35b34801561033757600080fd5b50610364600480360381019080803590602001909291908035600019169060200190929190505050610c7c565b005b34801561037257600080fd5b506103a7600480360381019080803573ffffffffffffffffffffffffffffffffffffffff169060200190929190505050610f12565b6040518082815260200191505060405180910390f35b3480156103c957600080fd5b506103d2610f5a565b6040518080602001828103825283818151815260200191508051906020019080838360005b838110156104125780820151818401526020810190506103f7565b50505050905090810190601f16801561043f5780820380516001836020036101000a031916815260200191505b509250505060405180910390f35b34801561045957600080fd5b506104a6600480360381019080803573ffffffffffffffffffffffffffffffffffffffff169060200190929190803590602001909291908035600019169060200190929190505050610f93565b005b3480156104b457600080fd5b50610501600480360381019080803573ffffffffffffffffffffffffffffffffffffffff16906020019092919080359060200190929190803560001916906020019092919050505061103d565b005b34801561050f57600080fd5b5061054e600480360381019080803573ffffffffffffffffffffffffffffffffffffffff169060200190929190803590602001909291905050506110e7565b604051808215151515815260200191505060405180910390f35b34801561057457600080fd5b506105b3600480360381019080803573ffffffffffffffffffffffffffffffffffffffff1690602001909291908035906020019092919050505061131e565b604051808215151515815260200191505060405180910390f35b6105ef6004803603810190808035600019169060200190929190505050611335565b005b3480156105fd57600080fd5b50610652600480360381019080803573ffffffffffffffffffffffffffffffffffffffff169060200190929190803573ffffffffffffffffffffffffffffffffffffffff1690602001909291905050506118e5565b6040518082815260200191505060405180910390f35b34801561067457600080fd5b506106a160048036038101908080359060200190929190803560001916906020019092919050505061196c565b005b3480156106af57600080fd5b5061071c600480360381019080803573ffffffffffffffffffffffffffffffffffffffff169060200190929190803573ffffffffffffffffffffffffffffffffffffffff169060200190929190803590602001909291908035600019169060200190929190505050611b07565b005b6040805190810160405280601381526020017f436f6e7374616e7420537461626c65636f696e0000000000000000000000000081525081565b60008073ffffffffffffffffffffffffffffffffffffffff168373ffffffffffffffffffffffffffffffffffffffff161415151561079457600080fd5b81600160003373ffffffffffffffffffffffffffffffffffffffff1673ffffffffffffffffffffffffffffffffffffffff16815260200190815260200160002060008573ffffffffffffffffffffffffffffffffffffffff1673ffffffffffffffffffffffffffffffffffffffff168152602001908152602001600020819055508273ffffffffffffffffffffffffffffffffffffffff163373ffffffffffffffffffffffffffffffffffffffff167f8c5be1e5ebec7d5bd14f71427d1e84f3dd0314c0f7b2291e5b200ac8c7c3b925846040518082815260200191505060405180910390a36001905092915050565b6000600254905090565b6000600160008573ffffffffffffffffffffffffffffffffffffffff1673ffffffffffffffffffffffffffffffffffffffff16815260200190815260200160002060003373ffffffffffffffffffffffffffffffffffffffff1673ffffffffffffffffffffffffffffffffffffffff16815260200190815260200160002054821115151561091b57600080fd5b6109aa82600160008773ffffffffffffffffffffffffffffffffffffffff1673ffffffffffffffffffffffffffffffffffffffff16815260200190815260200160002060003373ffffffffffffffffffffffffffffffffffffffff1673ffffffffffffffffffffffffffffffffffffffff16815260200190815260200160002054611bb390919063ffffffff16565b600160008673ffffffffffffffffffffffffffffffffffffffff1673ffffffffffffffffffffffffffffffffffffffff16815260200190815260200160002060003373ffffffffffffffffffffffffffffffffffffffff1673ffffffffffffffffffffffffffffffffffffffff16815260200190815260200160002081905550610a35848484611bd4565b600190509392505050565b600281565b60008073ffffffffffffffffffffffffffffffffffffffff168373ffffffffffffffffffffffffffffffffffffffff1614151515610a8257600080fd5b610b1182600160003373ffffffffffffffffffffffffffffffffffffffff1673ffffffffffffffffffffffffffffffffffffffff16815260200190815260200160002060008673ffffffffffffffffffffffffffffffffffffffff1673ffffffffffffffffffffffffffffffffffffffff16815260200190815260200160002054611ded90919063ffffffff16565b600160003373ffffffffffffffffffffffffffffffffffffffff1673ffffffffffffffffffffffffffffffffffffffff16815260200190815260200160002060008573ffffffffffffffffffffffffffffffffffffffff1673ffffffffffffffffffffffffffffffffffffffff168152602001908152602001600020819055508273ffffffffffffffffffffffffffffffffffffffff163373ffffffffffffffffffffffffffffffffffffffff167f8c5be1e5ebec7d5bd14f71427d1e84f3dd0314c0f7b2291e5b200ac8c7c3b925600160003373ffffffffffffffffffffffffffffffffffffffff1673ffffffffffffffffffffffffffffffffffffffff16815260200190815260200160002060008773ffffffffffffffffffffffffffffffffffffffff1673ffffffffffffffffffffffffffffffffffffffff168152602001908152602001600020546040518082815260200191505060405180910390a36001905092915050565b6000600360009054906101000a900473ffffffffffffffffffffffffffffffffffffffff1673ffffffffffffffffffffffffffffffffffffffff163373ffffffffffffffffffffffffffffffffffffffff16141515610cda57600080fd5b600483815481101515610ce957fe5b9060005260206000209060070201905060006002811115610d0657fe5b8160060160149054906101000a900460ff166002811115610d2357fe5b141515610d2f57600080fd5b8060030160020154816003016001015402600660009054906101000a900473ffffffffffffffffffffffffffffffffffffffff1673ffffffffffffffffffffffffffffffffffffffff16637bfb09346040518163ffffffff167c010000000000000000000000000000000000000000000000000000000002815260040180807f65746850726963650000000000000000000000000000000000000000000000008152506020019050602060405180830381600087803b158015610df157600080fd5b505af1158015610e05573d6000803e3d6000fd5b505050506040513d6020811015610e1b57600080fd5b8101908080519060200190929190505050101515610e3857600080fd5b60028160060160146101000a81548160ff02191690836002811115610e5957fe5b0217905550600360009054906101000a900473ffffffffffffffffffffffffffffffffffffffff1673ffffffffffffffffffffffffffffffffffffffff166108fc82600301600001549081150290604051600060405180830381858888f19350505050158015610ecd573d6000803e3d6000fd5b507f19ab7221fec3242f7442ff80888f33c250afdf8d4cf62583cec2748acaad0ec48260405180826000191660001916815260200191505060405180910390a1505050565b60008060008373ffffffffffffffffffffffffffffffffffffffff1673ffffffffffffffffffffffffffffffffffffffff168152602001908152602001600020549050919050565b6040805190810160405280600581526020017f434f4e535400000000000000000000000000000000000000000000000000000081525081565b600360009054906101000a900473ffffffffffffffffffffffffffffffffffffffff1673ffffffffffffffffffffffffffffffffffffffff163373ffffffffffffffffffffffffffffffffffffffff16141515610fef57600080fd5b610ff98383611e0e565b7fb0de879351469d2741406aafc9ba1f44eb957cf44ee3391e59a7a9097050c9278160405180826000191660001916815260200191505060405180910390a1505050565b600360009054906101000a900473ffffffffffffffffffffffffffffffffffffffff1673ffffffffffffffffffffffffffffffffffffffff163373ffffffffffffffffffffffffffffffffffffffff1614151561109957600080fd5b6110a38383611f99565b7fef72b9890ab0fc46404e72534dc1bbc275de9d7efd8b3657ad91f82e1a3d39c48160405180826000191660001916815260200191505060405180910390a1505050565b60008073ffffffffffffffffffffffffffffffffffffffff168373ffffffffffffffffffffffffffffffffffffffff161415151561112457600080fd5b6111b382600160003373ffffffffffffffffffffffffffffffffffffffff1673ffffffffffffffffffffffffffffffffffffffff16815260200190815260200160002060008673ffffffffffffffffffffffffffffffffffffffff1673ffffffffffffffffffffffffffffffffffffffff16815260200190815260200160002054611bb390919063ffffffff16565b600160003373ffffffffffffffffffffffffffffffffffffffff1673ffffffffffffffffffffffffffffffffffffffff16815260200190815260200160002060008573ffffffffffffffffffffffffffffffffffffffff1673ffffffffffffffffffffffffffffffffffffffff168152602001908152602001600020819055508273ffffffffffffffffffffffffffffffffffffffff163373ffffffffffffffffffffffffffffffffffffffff167f8c5be1e5ebec7d5bd14f71427d1e84f3dd0314c0f7b2291e5b200ac8c7c3b925600160003373ffffffffffffffffffffffffffffffffffffffff1673ffffffffffffffffffffffffffffffffffffffff16815260200190815260200160002060008773ffffffffffffffffffffffffffffffffffffffff1673ffffffffffffffffffffffffffffffffffffffff168152602001908152602001600020546040518082815260200191505060405180910390a36001905092915050565b600061132b338484611bd4565b6001905092915050565b61133d6120d7565b6000600660009054906101000a900473ffffffffffffffffffffffffffffffffffffffff1673ffffffffffffffffffffffffffffffffffffffff16637bfb09346040518163ffffffff167c010000000000000000000000000000000000000000000000000000000002815260040180807f65746850726963650000000000000000000000000000000000000000000000008152506020019050602060405180830381600087803b1580156113f057600080fd5b505af1158015611404573d6000803e3d6000fd5b505050506040513d602081101561141a57600080fd5b810190808051906020019092919050505090506064600560009054906101000a900473ffffffffffffffffffffffffffffffffffffffff1673ffffffffffffffffffffffffffffffffffffffff16632adfef746040518163ffffffff167c010000000000000000000000000000000000000000000000000000000002815260040180807f657468526174696f0000000000000000000000000000000000000000000000008152506020019050602060405180830381600087803b1580156114e057600080fd5b505af11580156114f4573d6000803e3d6000fd5b505050506040513d602081101561150a57600080fd5b81019080805190602001909291905050508234020281151561152857fe5b04826000018181525050600560009054906101000a900473ffffffffffffffffffffffffffffffffffffffff1673ffffffffffffffffffffffffffffffffffffffff16632adfef746040518163ffffffff167c010000000000000000000000000000000000000000000000000000000002815260040180807f657468496e7465726573740000000000000000000000000000000000000000008152506020019050602060405180830381600087803b1580156115e357600080fd5b505af11580156115f7573d6000803e3d6000fd5b505050506040513d602081101561160d57600080fd5b8101908080519060200190929190505050826020018181525050606060405190810160405280348152602001828152602001600560009054906101000a900473ffffffffffffffffffffffffffffffffffffffff1673ffffffffffffffffffffffffffffffffffffffff16632adfef746040518163ffffffff167c010000000000000000000000000000000000000000000000000000000002815260040180807f6574685468726573686f6c6400000000000000000000000000000000000000008152506020019050602060405180830381600087803b1580156116f057600080fd5b505af1158015611704573d6000803e3d6000fd5b505050506040513d602081101561171a57600080fd5b810190808051906020019092919050505081525082606001819052504282604001818152505033826080019073ffffffffffffffffffffffffffffffffffffffff16908173ffffffffffffffffffffffffffffffffffffffff168152505060008260a00190600281111561178a57fe5b9081600281111561179757fe5b8152505060048290806001815401808255809150509060018203906000526020600020906007020160009091929091909150600082015181600001556020820151816001015560408201518160020155606082015181600301600082015181600001556020820151816001015560408201518160020155505060808201518160060160006101000a81548173ffffffffffffffffffffffffffffffffffffffff021916908373ffffffffffffffffffffffffffffffffffffffff16021790555060a08201518160060160146101000a81548160ff0219169083600281111561187b57fe5b0217905550505050611891338360000151611f99565b7f036872352a35530308027377cd0aef0e9489e4339550fb7fcc3ae38bc648a134600160048054905003846040518083815260200182600019166000191681526020019250505060405180910390a1505050565b6000600160008473ffffffffffffffffffffffffffffffffffffffff1673ffffffffffffffffffffffffffffffffffffffff16815260200190815260200160002060008373ffffffffffffffffffffffffffffffffffffffff1673ffffffffffffffffffffffffffffffffffffffff16815260200190815260200160002054905092915050565b600060048381548110151561197d57fe5b906000526020600020906007020190506000600281111561199a57fe5b8160060160149054906101000a900460ff1660028111156119b757fe5b1415156119c357600080fd5b8060060160009054906101000a900473ffffffffffffffffffffffffffffffffffffffff1673ffffffffffffffffffffffffffffffffffffffff163373ffffffffffffffffffffffffffffffffffffffff16141515611a2157600080fd5b60018160060160146101000a81548160ff02191690836002811115611a4257fe5b0217905550611a67333083600201544203846001015402600101846000015402611bd4565b611a75308260000154611e0e565b3373ffffffffffffffffffffffffffffffffffffffff166108fc82600301600001549081150290604051600060405180830381858888f19350505050158015611ac2573d6000803e3d6000fd5b507fd68d5698fae2dc1d31bf2bf1ea674da9ebcc3989a5c8b6892414890a1de99a808260405180826000191660001916815260200191505060405180910390a1505050565b600360009054906101000a900473ffffffffffffffffffffffffffffffffffffffff1673ffffffffffffffffffffffffffffffffffffffff163373ffffffffffffffffffffffffffffffffffffffff16141515611b6357600080fd5b611b6e848484611bd4565b7f3b36ee6b35325f38e95938557be92853c842b7a9a19fd7ac4931a6d24db526828160405180826000191660001916815260200191505060405180910390a150505050565b600080838311151515611bc557600080fd5b82840390508091505092915050565b6000808473ffffffffffffffffffffffffffffffffffffffff1673ffffffffffffffffffffffffffffffffffffffff168152602001908152602001600020548111151515611c2157600080fd5b600073ffffffffffffffffffffffffffffffffffffffff168273ffffffffffffffffffffffffffffffffffffffff1614151515611c5d57600080fd5b611cae816000808673ffffffffffffffffffffffffffffffffffffffff1673ffffffffffffffffffffffffffffffffffffffff16815260200190815260200160002054611bb390919063ffffffff16565b6000808573ffffffffffffffffffffffffffffffffffffffff1673ffffffffffffffffffffffffffffffffffffffff16815260200190815260200160002081905550611d41816000808573ffffffffffffffffffffffffffffffffffffffff1673ffffffffffffffffffffffffffffffffffffffff16815260200190815260200160002054611ded90919063ffffffff16565b6000808473ffffffffffffffffffffffffffffffffffffffff1673ffffffffffffffffffffffffffffffffffffffff168152602001908152602001600020819055508173ffffffffffffffffffffffffffffffffffffffff168373ffffffffffffffffffffffffffffffffffffffff167fddf252ad1be2c89b69c2b068fc378daa952ba7f163c4a11628f55a4df523b3ef836040518082815260200191505060405180910390a3505050565b6000808284019050838110151515611e0457600080fd5b8091505092915050565b60008273ffffffffffffffffffffffffffffffffffffffff1614151515611e3457600080fd5b6000808373ffffffffffffffffffffffffffffffffffffffff1673ffffffffffffffffffffffffffffffffffffffff168152602001908152602001600020548111151515611e8157600080fd5b611e9681600254611bb390919063ffffffff16565b600281905550611eed816000808573ffffffffffffffffffffffffffffffffffffffff1673ffffffffffffffffffffffffffffffffffffffff16815260200190815260200160002054611bb390919063ffffffff16565b6000808473ffffffffffffffffffffffffffffffffffffffff1673ffffffffffffffffffffffffffffffffffffffff16815260200190815260200160002081905550600073ffffffffffffffffffffffffffffffffffffffff168273ffffffffffffffffffffffffffffffffffffffff167fddf252ad1be2c89b69c2b068fc378daa952ba7f163c4a11628f55a4df523b3ef836040518082815260200191505060405180910390a35050565b60008273ffffffffffffffffffffffffffffffffffffffff1614151515611fbf57600080fd5b611fd481600254611ded90919063ffffffff16565b60028190555061202b816000808573ffffffffffffffffffffffffffffffffffffffff1673ffffffffffffffffffffffffffffffffffffffff16815260200190815260200160002054611ded90919063ffffffff16565b6000808473ffffffffffffffffffffffffffffffffffffffff1673ffffffffffffffffffffffffffffffffffffffff168152602001908152602001600020819055508173ffffffffffffffffffffffffffffffffffffffff16600073ffffffffffffffffffffffffffffffffffffffff167fddf252ad1be2c89b69c2b068fc378daa952ba7f163c4a11628f55a4df523b3ef836040518082815260200191505060405180910390a35050565b61010060405190810160405280600081526020016000815260200160008152602001612101612136565b8152602001600073ffffffffffffffffffffffffffffffffffffffff1681526020016000600281111561213057fe5b81525090565b60606040519081016040528060008152602001600081526020016000815250905600a165627a7a723058200bb491f66438637ba2d597eaf3aa7714b5a14150f869d14484173ec3031653260029",
  "source": "pragma solidity >=0.4.24;\n\nimport 'openzeppelin-solidity/contracts/token/ERC20/ERC20.sol';\nimport './Admin.sol';\nimport './IOracle.sol';\nimport './IMonetaryPolicy.sol';\n\ncontract Constant is ERC20, Admin { \n\n        // token info\n        string public constant name = \"Constant Stablecoin\"; \n        string public constant symbol = \"CONST\"; \n        uint public constant decimals = 2;\n\n        enum LoanState {Open, Closed, Liquidated}\n\n        struct Asset {\n                uint amount;\n                uint price;\n                uint threshold; // for automatic liquidation\n        }\n\n        struct Loan {\n                uint principal;\n                uint interest;\n                uint since;\n                Asset collateral;\n                address borrower;\n                LoanState state;\n        }\n\n        Loan[] private loans;\n\n        // interface to external contracts\n        IMonetaryPolicy private monetary;\n        IOracle private oracle;\n\n\n        // events to track onchain-offchain relationships\n        event __transferByAdmin(bytes32 offchain);\n        event __purchase(bytes32 offchain);\n        event __redeem(bytes32 offchain);\n        event __borrow(uint lid, bytes32 offchain);\n        event __payoff(bytes32 offchain);\n        event __liquidate(bytes32 offchain);\n\n\n        constructor(address _monetary, address _oracle) public {\n                monetary = IMonetaryPolicy(_monetary);\n                oracle = IOracle(_oracle);\n        }\n\n\n        /**\n         * @dev function to transfer CONST\n         * @param from the address to transfer from\n         * @param to the address to transfer to \n         * @param value the amount to be transferred \n         */\n        function transferByAdmin(\n                address from, \n                address to, \n                uint value, \n                bytes32 offchain\n        ) \n                public \n                onlyAdmin \n        {\n                _transfer(from, to, value);\n                emit __transferByAdmin(offchain); \n        }\n        \n\n        /**\n         * @dev function to purchase new CONST\n         * @param purchaser the address that will receive the newly minted CONST\n         * @param value the amount of CONST to mint\n         */\n        function purchase(\n                address purchaser, \n                uint value, \n                bytes32 offchain\n        ) \n                public \n                onlyAdmin \n        {\n                _mint(purchaser, value);\n                emit __purchase(offchain); \n        }\n\n\n        /**\n         * @dev function to burn CONST\n         * @param redeemer the account whose CONST will be burnt\n         * @param value the amount of CONST to be burnt\n         */\n        function redeem(\n                address redeemer, \n                uint value, \n                bytes32 offchain\n        ) \n                public \n                onlyAdmin \n        {\n                _burn(redeemer, value);\n                emit __redeem(offchain); \n        }\n\n\n        /**\n         * @dev function to extend a secured loan\n         */\n        function borrow(bytes32 offchain) public payable {\n                Loan memory l;\n                uint ethPrice = oracle.value(\"ethPrice\");\n                l.principal = (msg.value * ethPrice * monetary.param(\"ethRatio\")) / 100;\n                l.interest = monetary.param(\"ethInterest\");\n                l.collateral = Asset(msg.value, ethPrice, monetary.param(\"ethThreshold\"));\n                l.since = now;\n                l.borrower = msg.sender;\n                l.state = LoanState.Open;\n\n                loans.push(l);\n                _mint(msg.sender, l.principal);\n\n                emit __borrow(loans.length - 1, offchain); // catch this event\n        }\n\n\n        /**\n         * @dev function to pay off a secured loan\n         * @param lid the loan id\n         */\n        function payoff(uint lid, bytes32 offchain) public {\n                Loan storage l = loans[lid];\n\n                require(l.state == LoanState.Open);\n                require(msg.sender == l.borrower);\n\n                l.state = LoanState.Closed;\n                _transfer(msg.sender, this, l.principal * (1 + l.interest * (now - l.since)));\n                _burn(this, l.principal);\n                msg.sender.transfer(l.collateral.amount);\n\n                emit __payoff(offchain);\n        }\n\n\n        /**\n         * @dev function to handle automatic liquidation \n         * @param lid the loan id\n         */\n        function liquidate(uint lid, bytes32 offchain) public onlyAdmin {\n                Loan storage l = loans[lid];\n\n                require(l.state == LoanState.Open);\n                require(oracle.value(\"ethPrice\") < l.collateral.price * l.collateral.threshold);\n\n                l.state = LoanState.Liquidated;\n                admin.transfer(l.collateral.amount);\n\n                emit __liquidate(offchain);\n        }\n}\n",
  "sourcePath": "/Users/apple/workspace/ninja/GoRoot/src/github.com/constant-money/constant-mvp/smart-contract/contracts/Constant.sol",
  "compiler": {
    "name": "solc",
    "version": "0.4.24+commit.e67f0147.Emscripten.clang"
  },
  "schemaVersion": "3.0.1",
  "updatedAt": "2019-01-22T02:31:26.667Z",
  "devdoc": {
    "methods": {
      "allowance(address,address)": {
        "details": "Function to check the amount of tokens that an owner allowed to a spender.",
        "params": {
          "owner": "address The address which owns the funds.",
          "spender": "address The address which will spend the funds."
        },
        "return": "A uint256 specifying the amount of tokens still available for the spender."
      },
      "approve(address,uint256)": {
        "details": "Approve the passed address to spend the specified amount of tokens on behalf of msg.sender. Beware that changing an allowance with this method brings the risk that someone may use both the old and the new allowance by unfortunate transaction ordering. One possible solution to mitigate this race condition is to first reduce the spender's allowance to 0 and set the desired value afterwards: https://github.com/ethereum/EIPs/issues/20#issuecomment-263524729",
        "params": {
          "spender": "The address which will spend the funds.",
          "value": "The amount of tokens to be spent."
        }
      },
      "balanceOf(address)": {
        "details": "Gets the balance of the specified address.",
        "params": {
          "owner": "The address to query the balance of."
        },
        "return": "An uint256 representing the amount owned by the passed address."
      },
      "borrow(bytes32)": {
        "details": "function to extend a secured loan"
      },
      "decreaseAllowance(address,uint256)": {
        "details": "Decrease the amount of tokens that an owner allowed to a spender. approve should be called when allowed_[_spender] == 0. To decrement allowed value is better to use this function to avoid 2 calls (and wait until the first transaction is mined) From MonolithDAO Token.sol",
        "params": {
          "spender": "The address which will spend the funds.",
          "subtractedValue": "The amount of tokens to decrease the allowance by."
        }
      },
      "increaseAllowance(address,uint256)": {
        "details": "Increase the amount of tokens that an owner allowed to a spender. approve should be called when allowed_[_spender] == 0. To increment allowed value is better to use this function to avoid 2 calls (and wait until the first transaction is mined) From MonolithDAO Token.sol",
        "params": {
          "addedValue": "The amount of tokens to increase the allowance by.",
          "spender": "The address which will spend the funds."
        }
      },
      "liquidate(uint256,bytes32)": {
        "details": "function to handle automatic liquidation ",
        "params": {
          "lid": "the loan id"
        }
      },
      "payoff(uint256,bytes32)": {
        "details": "function to pay off a secured loan",
        "params": {
          "lid": "the loan id"
        }
      },
      "purchase(address,uint256,bytes32)": {
        "details": "function to purchase new CONST",
        "params": {
          "purchaser": "the address that will receive the newly minted CONST",
          "value": "the amount of CONST to mint"
        }
      },
      "redeem(address,uint256,bytes32)": {
        "details": "function to burn CONST",
        "params": {
          "redeemer": "the account whose CONST will be burnt",
          "value": "the amount of CONST to be burnt"
        }
      },
      "totalSupply()": {
        "details": "Total number of tokens in existence"
      },
      "transfer(address,uint256)": {
        "details": "Transfer token for a specified address",
        "params": {
          "to": "The address to transfer to.",
          "value": "The amount to be transferred."
        }
      },
      "transferByAdmin(address,address,uint256,bytes32)": {
        "details": "function to transfer CONST",
        "params": {
          "from": "the address to transfer from",
          "to": "the address to transfer to ",
          "value": "the amount to be transferred "
        }
      },
      "transferFrom(address,address,uint256)": {
        "details": "Transfer tokens from one address to another",
        "params": {
          "from": "address The address which you want to send tokens from",
          "to": "address The address which you want to transfer to",
          "value": "uint256 the amount of tokens to be transferred"
        }
      }
    }
  },
  "userdoc": {
    "methods": {}
  }
}